:100000000C9434000C9451000C9451000C94510049
:100010000C9451000C9451000C9451000C9451001C
:100020000C9451000C9451000C9451000C9451000C
:100030000C9451000C9451000C9451000C945100FC
:100040000C9451000C9451000C948B000C945100B2
:100050000C9451000C9451000C9451000C945100DC
:100060000C9451000C94510011241FBECFEFD8E026
:10007000DEBFCDBF11E0A0E0B1E0E6E6F1E002C0F6
:1000800005900D92A830B107D9F721E0A8E0B1E0C2
:1000900001C01D92A930B207E1F70E9484000C94C0
:1000A000B1000C94000087E690E09093C500809327
:1000B000C40088E98093C10086E08093C20008955F
:1000C000F8948AB1806C8AB98FEF84B90E9453008A
:1000D000789408959091C00095FFFCCF8093C6005E
:1000E00008950F931F93CF938C01C0E003C00E942B
:1000F0006A00CF5FF801EC0FF11D80818111F7CF0D
:10010000CF911F910F9108950E94600080E091E0CF
:100110000E947100FFCF1F920F920FB60F92112411
:100120002F933F938F939F938091C60080930801F4
:10013000809108018695869585B92BB1909108012B
:1001400030E4939FC0011124922F9F73892B8BB9A8
:100150009F918F913F912F910F900FBE0F901F9005
:060160001895F894FFCF92
:08016600486F6C610D0A0000F6
:00000001FF
